:020000040800F2
:100000009020002015020008190200081B020008B9
:100010001D0200081F020008210200080000000065
:1000200000000000000000000000000023020008A3
:10003000250200080000000027020008290200082D
:100040002B0200082B0200082B0200082B020008DC
:100050002B0200082B0200082B0200082B020008CC
:100060002B0200082B0200082B0200082B020008BC
:100070002B0200082B0200082B0200082B020008AC
:100080002B0200082B0200082B0200082B0200089C
:100090002B0200082B0200082B0200082B0200088C
:1000A0002B0200082B0200082B0200082B0200087C
:1000B0002B0200082B0200082B0200082B0200086C
:1000C0002B0200082B0200082B0200082B0200085C
:1000D0002B020008B92100082B0200082B0200089F
:1000E0002B0200082B0200082B0200082B0200083C
:1000F0002B0200082B0200082B0200082B0200082C
:100100002B0200082B0200082B0200082B0200081B
:100110002B0200082B0200082B0200082B0200080B
:100120002B0200082B0200082B0200082B020008FB
:1001300000F002F800F05FF80AA090E8000C82449A
:100140008344AAF10107DA4501D100F054F8AFF277
:10015000090EBAE80F0013F0010F18BFFB1A43F0A5
:1001600001031847C0410000E04100000A444FF07D
:10017000000C10F8013B13F0070408BF10F8014B06
:100180001D1108BF10F8015B641E05D010F8016B4B
:10019000641E01F8016BF9D113F0080F1EBF10F8AF
:1001A000014BAD1C0C1B09D16D1E58BF01F801CBD2
:1001B000FAD505E014F8016B01F8016B6D1EF9D555
:1001C0009142D6D37047000000230024002500266A
:1001D000103A28BF78C1FBD8520728BF30C148BFAA
:1001E0000B607047782900F06F80002070471FB5C2
:1001F0001FBD10B510BD00F027FA1146FFF7F7FF3D
:1002000002F0CEF800F045FA03B4FFF7F2FF03BCAA
:1002100002F01BF808480047FEE7FEE7FEE7FEE7AE
:10022000FEE7FEE7FEE7FEE7FEE7FEE703480449D8
:10023000044A054B7047000031010008901A002065
:1002400090200020901C0020901C0020704700008F
:100250000FB41CB5074B06AA7B446946009005986D
:1002600000F0D5F90020694600F0E4F91CBC5DF807
:1002700014FB0000D903000070B5044685690068CE
:10028000C10601D5302600E02026C00707D070BD8A
:10029000D4E9012130469047206A401C20626D1E3F
:1002A000F6D570BD70B5044685690078C00707D1E2
:1002B00070BDD4E9012120209047206A401C2062B3
:1002C0006D1EF6D570BD000070B504460D46214682
:1002D0001068AFF300802188090502D50F4A7A44DF
:1002E00002E00E4A7A440E32002104F1240305E0B4
:1002F00000F00F060009965D5E54491C0028F7D1F6
:1003000020780023000704D5702D02D009B1022304
:1003100011322046BDE8704000F01AB9EA3F0000F3
:100320002DE9F05F894604464FF0000ADFF824B15A
:10033000FB44C0F820A02046E168884700287DD013
:10034000252806D0D4E901219047206A401C20626C
:10035000F1E700255F462046E168884720280646E9
:1003600007DB312E05D2B81910F8200C08B105436F
:10037000F1E7A80701D525F00405C4F81CA0002763
:10038000C4F818A02A2E09D0304601F057FF38B320
:1003900004EB8708303EC8F8186019E059F8041BD0
:1003A000204604EB87029161E1688847012F0646E9
:1003B00018D1E069002820DA25F020051DE0D8F8E2
:1003C000180000EB800006EB40003038C8F8180039
:1003D0002046E1688847064601F030FF0028EED14C
:1003E000012F0AD02E2E08D12046E16888477F1CB5
:1003F0000646022F45F02005C4DBA069002803DA79
:10040000404245F00105A061E80701D025F0100544
:10041000A6B1A6F14100192802D8203645F400659E
:100420004A463146204625604D46FFF7DBFE60B167
:10043000012807D0ED1D25F0070000E007E000F1DE
:10044000080978E705F1040975E730467AE7206A7C
:10045000BDE8F09FC03F000010B5431C02E010F85B
:10046000011B71B18107FAD14FF0013202C88C1A19
:100470008C4314EAC211F9D0C01A0A0603D0C01E78
:1004800010BDC01A10BD0A0401D0801E10BD0902A3
:10049000FCD0401E10BD10B5203AC0F00B80B1E872
:1004A0001850203AA0E81850B1E81850A0E81850A9
:1004B000BFF4F5AF5FEA027C24BFB1E81850A0E8B2
:1004C000185044BF18C918C0BDE810405FEA827CCC
:1004D00024BF51F8043B40F8043B08BF7047D207E3
:1004E00028BF31F8023B48BF11F8012B28BF20F884
:1004F000023B48BF00F8012B70474FF0000200B5E7
:10050000134694469646203922BFA0E80C50A0E836
:100510000C50B1F12001BFF4F7AF090728BFA0E8E4
:100520000C5048BF0CC05DF804EB890028BF40F8B0
:10053000042B08BF704748BF20F8022B11F0804FF2
:1005400018BF00F8012B704770477047704770471D
:100550002DE9F0470D4699469246044600F12408DD
:100560000168880604D5E06921F01001216000E0EF
:100570000120A84201DD471B00E00027A1697A198C
:1005800002EB0900081AA0612078C00602D42046B8
:10059000FFF772FE002608E0D4E901211AF80600F0
:1005A0009047206A401C761C20624E45F4DB207880
:1005B000C0060AD52046FFF75FFE06E0D4E9012118
:1005C00030209047206A401C2062381EA7F10107A6
:1005D000F4DC07E0D4E9012118F805009047206A0F
:1005E000401C2062281EA5F10105F3DC2046FFF720
:1005F00059FE2078000602D50220BDE8F0870120D0
:10060000FBE7000001694A1C02610878704700B5E9
:100610008FB0CDE901310021059105497944CDE93B
:10062000031011466846FFF77BFE0FB000BD0000C7
:10063000E5FFFFFF0A6802F8010B0A60704700003F
:10064000004870472C1A00207546FFF7F9FFAE46A8
:1006500005006946534620F00700854618B020B5CE
:10066000FFF7E4FDBDE820404FF000064FF0000723
:100670004FF000084FF0000B21F00701AC46ACE84A
:10068000C009ACE8C009ACE8C009ACE8C0098D46B7
:1006900070470446AFF300802046FFF7B5FD000029
:1006A00008B517A000F0F0F84FF47840174908801B
:1006B0000020174908800120102316A21E21009057
:1006C000032001F0A1FC0120102314A2322100908C
:1006D000032001F099FC0120182312A2462100906A
:1006E000032001F091FC0120182310A26421009046
:1006F000032001F089FC40F2DC5001F0C9FD08BD87
:10070000D6D0CEC4CFD4CABE00000000BE0C00209C
:10071000C00C002031363ABAE8D1B60031363AB5CD
:10072000E7D7D30032343ACFD400000032343ACA8B
:10073000BE00000008B500F059F84FF6FF7000F059
:1007400085FC002020490880012010231FA20F21D2
:100750000090142001F058FC40F2DC5001F098FDAC
:100760004FF6FF70184908804FF4784000F06EFC97
:100770000120102317A20F210090192001F044FC42
:1007800040F2DC5001F084FD4FF4FC6000F05EFCB0
:100790000120102311A20F210090142001F034FC3D
:1007A00040F2DC5001F074FD1F2000F04FFC0120EE
:1007B00010230CA20F210090162001F025FC40F21E
:1007C000DC5001F065FD08BDBE0C002057484954BF
:1007D00045000000524544200000000047524545B6
:1007E0004E200000424C55452000000070B588B0F6
:1007F000202223496846FFF74EFE2248438802889C
:100800000021084601F0C4F801F084FA002617E040
:1008100000240CE0002505E03DF8261088B201F028
:1008200049FA6D1C17480088A842F5D8641C154980
:100830004888C11700EB5171B4EBE10FEAD3761C85
:10084000082EE5D300240BE0002504E0079988B2C8
:1008500001F030FA6D1C0B480088A842F6D8641CE1
:1008600008494888C11700EB5171C910A0EBC101BC
:10087000A142E9D84FF47A7001F00AFD08B070BDCA
:10088000AC4200081C1A002038B504464FF6FF7031
:1008900000F0DCFB1F2000903C480288142300215C
:1008A000084600F029FD4FF4FC60394908803748BC
:1008B000028814231946002000F03CFC1F20344914
:1008C00008803248028815231946002000F032FCC7
:1008D0004FF607402E4908802C48028816231946F7
:1008E000002000F027FC1F20009028484388028841
:1008F0004088143881B2002000F0FEFC4FF4FC6008
:100900002349088021484088143883B21F48028850
:100910004088143881B2002000F00CFC1F201C49D4
:1009200008801A484088153883B2184802884088E1
:10093000153881B2002000F0FDFB4FF60740144946
:10094000088012484088163883B2104802884088D0
:10095000163881B2002000F0EDFB4FF6FF700C4915
:10096000088001201023224602210090002000F080
:1009700025FB0120009005484088123881B21023E1
:1009800004A2002000F01AFB38BD00001C1A002051
:10099000BE0C0020BAE8D1B6B5E7D7D300000000FE
:1009A0001CB524A0FFF770FF4FF47840244908805D
:1009B0004FF6FF702349088023A00C210B46C82264
:1009C000CDE900101E21082001F0E2F820A00C2142
:1009D0000B46C822CDE900102D21082001F0D8F8DF
:1009E0001F20174908801CA010210B46C822CDE902
:1009F00000103C21082001F0CBF819A010210B4673
:100A0000C822CDE900105021082001F0C1F81F20B4
:100A10000B49088014A018210B46C822CDE900100C
:100A20006421082001F0B4F840F2DC5001F030FC01
:100A30001CBD0000D3A2CEC4CFD4CABE00000000AB
:100A4000BE0C0020C00C002031323A61626300000D
:100A500031323A414243000031363A61626300006C
:100A600031363A414243000032343A614263000079
:100A70002DE9F843002476A0FFF706FF4FF6FF703C
:100A8000009076484088183883B27448028818214C
:100A9000002000F031FC00BF4BE0714830F814003A
:100AA00070490880DFF8B4C1BCF8025005EBD57C72
:100AB0004FEA6C0CACF1050C0CEBC40C0CF1140CF3
:100AC0001FFA8CF3DFF894C1BCF8006006EBD67C0B
:100AD0004FEA6C0CACF1230C04EB44090CEB890CD1
:100AE0000CF1140C1FFA8CF2DFF870C1BCF8027024
:100AF00007EBD77C4FEA6C0CACF1050C0CEBC40C8B
:100B00001FFA8CF1DFF854C1BCF8008008EBD87CE8
:100B10004FEA6C0CACF1230C04EB44090CEB890C90
:100B20001FFA8CF000F06EFB642001F0B1FB601C3A
:100B3000C4B2052CB1DB002412E0494830F814009F
:100B40004849088004EB4401102202EB81000C228A
:100B5000322100F075FB642001F09AFB601CC4B2E6
:100B6000052CEADB40F2DC5001F092FB00244EE061
:100B70003B4830F814003B49088008460088DFF8FD
:100B8000DCC00090BCF8025005EBD57C4FEA6C0C41
:100B9000ACF1050C0CEBC40C0CF1140C1FFA8CF32B
:100BA000DFF8B8C0BCF8007007EBD77C4FEA6C0CDC
:100BB000ACF1230C04EB44090CEB890C0CF1140C84
:100BC0001FFA8CF2DFF894C0BCF8028008EBD87CE6
:100BD0004FEA6C0CACF1050C0CEBC40C1FFA8CF159
:100BE000DFF878C0BCF8006006EBD67C4FEA6C0CEE
:100BF000ACF1230C04EB44090CEB890C1FFA8CF0CC
:100C000000F07AFB642001F043FB601CC4B2052CA9
:100C1000AEDB002414E0124830F8140011490880BB
:100C200004EB4401102202EB81000E490B880C22D8
:100C3000322101F05DFB642001F02AFB601CC4B28C
:100C4000052CE8DB40F2DC5001F022FBBDE8F88324
:100C5000CDBCD0CECFD4CABE000000001C1A0020EC
:100C600042190020BE0C00202DE9F84F05468946A8
:100C700090469A46AB463420009000245DE004EB99
:100C80000410344911F8100098F80010884251D12E
:100C900004EB04102F4901EB4000407898F8011054
:100CA000884247D110231A464946284600F070FE74
:100CB00001F030F800263BE0002734E0BAF1000FE5
:100CC00014D104EB0410234901EB4000801C805D2B
:100CD00080213941084020B11F48008800F0EAFF18
:100CE0001FE01E48008800F0E5FF1AE004EB041046
:100CF000184901EB4000801C805D8021394108408B
:100D000018B14946284600F06DFA681C85B2A5EB7B
:100D10000B00102805D15D4609F101001FFA80F98A
:100D200003E0781CC7B2082FC8DB00BF701CC6B236
:100D3000202EC1DB00BF601C84B2009884429EDB81
:100D40000748438802880021084600F021FEBDE8DC
:100D5000F88F00000A000020BE0C0020C00C00200C
:100D60001C1A00202DE9F84F0546894690469A4600
:100D7000AB4606200090002465E004EB840000EB05
:100D80004410374911F8100098F80010884257D1E4
:100D900004EB840000EB4410314901EB4000407843
:100DA00098F8011088424BD118231A464946284624
:100DB00000F0EEFD00F0AEFF00263FE0002738E037
:100DC000BAF1000F16D104EB840000EB4410244963
:100DD00001EB4000801C805D80213941084020B13A
:100DE0002048008800F066FF21E01F48008800F0DE
:100DF00061FF1CE004EB840000EB4410184901EB98
:100E00004000801C805D80213941084018B149466E
:100E1000284600F0E7F9681C85B2A5EB0B001828FE
:100E200005D15D4609F101001FFA80F903E0781C45
:100E3000C7B2082FC4DB00BF701CC6B2482EBDDB92
:100E400000BF601C84B20098844296DB0748438848
:100E500002880021084600F09BFDBDE8F88F0000E5
:100E6000F2060020BE0C0020C00C00201C1A00203E
:100E70002DE9F84F0546894690469A46AB4608202C
:100E8000009000245DE004EB8410344911F8100058
:100E900098F80010884251D104EB84102F4901EBDF
:100EA0004000407898F80110884247D120231A4624
:100EB0004946284600F06CFD00F02CFF00263BE080
:100EC000002734E0BAF1000F14D104EB8410234959
:100ED00001EB4000801C805D80213941084020B139
:100EE0001F48008800F0E6FE1FE01E48008800F062
:100EF000E1FE1AE004EB8410184901EB4000801C6D
:100F0000805D80213941084018B14946284600F0EB
:100F100069F9681C85B2A5EB0B00202805D15D4658
:100F200009F101001FFA80F903E0781CC7B2082F0D
:100F3000C8DB00BF701CC6B2802EC1DB00BF601CC6
:100F400084B2009884429EDB0748438802880021CF
:100F5000084600F01DFDBDE8F88F0000AE08002037
:100F6000BE0C0020C00C00201C1A00202DE9F0430C
:100F700080468946154628231A464946404600F0D1
:100F800007FD00F0C7FE002409E015F8147005EB1A
:100F90004400467847EA062000F08CFE641CB4F555
:100FA000C86FF2DB0448438802880021084600F03D
:100FB000EFFCBDE8F08300001C1A00202DE9F84F7B
:100FC0000746894690461C46DDF828A04046FFF7B4
:100FD00043FA86B2102C0CDD214604EBD17252107C
:100FE0000D4B1B8806FB123000EBD072C2F34F058D
:100FF00007E009490988A1EBC60000EBD071C1F3F5
:101000004F05791988B2234642464946CDF800A0DB
:1010100000F0FAFFBDE8F88F1C1A002001464906CF
:10102000084A926942F00102064B9A61064A5268E8
:1010300022F0E062044B5A601A4652680A435A6032
:1010400070470000001002400000014070B50646E5
:1010500000240B4805884088454309484388028896
:101060000021084600F094FC00F054FE00BF03E0AD
:10107000304600F01FFE641CAC42F9D370BD000086
:101080001C1A002000B5282000F0E6FD00BD00B5C8
:10109000292000F0E1FD00BD10B50446244884710C
:1010A000807918B12248807901281BD1502020492D
:1010B0000880A02048802C2008812A2048812B20ED
:1010C00088810846807930B9362000F0C5FDC820F7
:1010D00000F092FD2AE0362000F0BEFD082000F06E
:1010E0008BFD23E012488079022803D010488079D4
:1010F00003281BD1A0200E490880502048802C20B6
:1011000008812A2048812B2088810846807902287E
:1011100006D1362000F0A0FD682000F06DFD05E04E
:10112000362000F099FDA82000F066FD10BD0000FB
:101130001C1A00202DE9FF4F84B081468A4600200A
:10114000039002900698A0EB09050798A0EB0A0609
:10115000CDF80490CDF800A0002D01DD012705E0B9
:101160000DB9002702E04FF0FF376D42002E02DD7F
:101170004FF0010806E016B94FF0000802E04FF00A
:10118000FF387642B54201DD2C4600E034464FF090
:10119000000B21E0009A91B2019A90B200F022F87F
:1011A0000398284403900298304402900398A04288
:1011B00005DD0398001B03900198384401900298C4
:1011C000A04205DD0298001B029000984044009068
:1011D0000BF101001FFA80FB601C8345DADD08B0CB
:1011E000BDE8F08F30B504460D462946204600F094
:1011F0004FFB00F08FFD0248008800F05BFD30BD22
:10120000BE0C0020F0B504460D4616461F462B4680
:10121000324629462046FFF78DFF3B4622462946A7
:101220002046FFF787FF3B46324639462046FFF708
:1012300081FF3B46324629463046FFF77BFFF0BD33
:101240002DE9F04306460F4690460024454603200C
:10125000A0EB48093CE07A1B91B2321990B2FFF73B
:10126000C1FF3A1B91B2721990B2FFF7BBFF3A1956
:1012700091B2721990B2FFF7B5FF7A1991B2321993
:1012800090B2FFF7AFFF7A1991B2321B90B2FFF71D
:10129000A9FF3A1991B2721B90B2FFF7A3FF7A1B14
:1012A00091B2321B90B2FFF79DFF3A1B91B2721BB5
:1012B00090B2FFF797FF641CB9F1000F03DAA000AA
:1012C000801D814404E0601B80000A3081446D1E53
:1012D000AC42C0DDBDE8F08370B505460E4614464D
:1012E0003146284600F0D4FA02490889214600F028
:1012F00019FD70BD1C1A00202DE9F04F05460E4661
:1013000017469846DDF824A04FF0000B781B401CD0
:101310001FFA80FB344616E00D48438802882146B8
:10132000284600F035FB00F0F5FC4FF0000906E020
:10133000504600F0BFFC09F101001FFA80F9D945C1
:10134000F6DB601C84B24445E6DDBDE8F08F0000AA
:101350001C1A002010B5A148806940F004009F4984
:1013600088610846806940F0080088610846806905
:1013700040F0100088610846806940F001008861F3
:101380000120FFF74BFE9648006820F470609449F6
:1013900008600846006840F440700860081D006856
:1013A000904908408E49091D0860084600688E492A
:1013B00008438B49091D086089480C30006849F6CC
:1013C0000401084386490C31086088484068C0F32E
:1013D00013008649486008464068854908438349A8
:1013E00048600846C06840F46040C86001208149F8
:1013F000086000F04DFF00207F49C1F8BC010A20C1
:1014000000F046FF01207B490860782000F040FF93
:10141000112000F021FC782000F03AFFB12000F00C
:101420001BFC052000F0E8FB3C2000F0E5FB3C2025
:1014300000F0E2FBB22000F00FFC052000F0DCFB26
:101440003C2000F0D9FB3C2000F0D6FBB32000F09C
:1014500003FC052000F0D0FB3C2000F0CDFB3C203D
:1014600000F0CAFB052000F0C7FB3C2000F0C4FBE5
:101470003C2000F0C1FBB42000F0EEFB032000F0A4
:10148000BBFBC02000F0E8FB042000F0B5FB04200B
:1014900000F0B2FB842000F0AFFBC12000F0DCFBC9
:1014A000062000F0A9FBC22000F0D6FB0D2000F0C2
:1014B000A3FB002000F0A0FBC32000F0CDFB8D209B
:1014C00000F09AFB6A2000F097FBC42000F0C4FBF8
:1014D0008D2000F091FBEE2000F08EFBC52000F087
:1014E000BBFB3A2000F088FBE02000F0B5FB1020A9
:1014F00000F082FB0E2000F07FFB052000F07CFB5B
:101500000D2000F079FB0E2000F076FB062000F0A5
:1015100073FB032000F070FB072000F06DFB0A2036
:1015200000F06AFB0E2000F067FB1D2000F064FB5A
:10153000322000F061FB032000F05EFB0B2000F086
:101540005BFB002000F058FB2F2000F055FBE12052
:1015500000F082FB0E2000F04FFB122000F04CFB4D
:10156000052000F049FB072000F046FB0C2000F0AE
:1015700043FB052000F040FB022000F03DFB06206D
:1015800000F03AFB072000F037FB0B2000F034FBA3
:10159000132000F031FB2C2000F02EFB032000F084
:1015A0002BFB0D2000F028FB022000F025FB1F2064
:1015B00000F022FB3A2000F04FFB052000F01CFB5E
:1015C000362000F049FB082000F016FB212000F037
:1015D00043FB292000F040FB10BD0000001002403A
:1015E00000080140FF0FF00F0080033000100140A1
:1015F00000003033BC0122420000224200200021C2
:101600000CE00022074B1A60074AD2F8342142EA64
:10161000400290B201221A604A1CD1B20829F0DBC4
:1016200070470000B8012242000022422DE9F04F2D
:1016300005460E464FF02E0A4FF0000B5248008828
:10164000A84203DD50484088B04202DC0020BDE8DB
:10165000F08F3146284600F01BF900204B49086006
:101660004B49C1F8BC01002417E00AF0800018B112
:1016700001204849086002E00020464908604FEA1E
:101680004A604FEA106A00204249091D08600120A3
:101690004149C1F8B801601CC4B2082CE5DB3F48E1
:1016A0004068C0F313003D4948600846406840F078
:1016B0004E5048600846C06840F46040C86000244E
:1016C00009E000203349091D086001203249C1F8B2
:1016D000B801601CC4B2092CF3DB00240DE000202B
:1016E0002C49091D08602C48D0F8340140EA470015
:1016F000C7B201200860601CC4B2082CEFDB0024D4
:101700000EE000202349091D08602348D0F8340169
:1017100040EA480000F0FF0801200860601CC4B2E5
:10172000082CEEDB00240EE000201A49091D086099
:101730001948D0F8340140EA490000F0FF090120BF
:101740000860601CC4B2082CEEDB07F0F800000251
:1017500008F0FC0140EAC10040EAE90B01200B4916
:1017600008600E484068C0F313000C494860084602
:1017700040680B490843094948600846C06840F47E
:101780006040C860584662E71C1A0020B001214240
:1017900000002142B4012242000022420010014018
:1017A0000000303330B50446002032490860324929
:1017B000C1F8BC01002515E004F0800018B101203B
:1017C0002E49086002E000202C4908606006040EE3
:1017D00000202A49091D086001202949C1F8B801E3
:1017E000681CC5B2082DE7DB26484068C0F313002B
:1017F000244948600846406840F04E50486008461A
:10180000C06840F46040C86000201C49091D0860A1
:1018100001201B49C1F8B801FFF7F0FEFFF7EEFE0B
:1018200019498880084680884FF6FF7101EA002038
:1018300015498880FFF7E2FE134989880843124959
:10184000888001200C49C1F8B0010E484068C0F3FF
:1018500013000C494860084640680C490843094990
:1018600048600846C06840F46040C8600648808808
:1018700030BD0000B001214200002142B4012242EB
:1018800000002242001001401C1A002000003033EA
:1018900030B504460D463D488079D0B93B4948896A
:1018A00000F0DAF904F11A01081200F0A5F904F1C8
:1018B0001A01C8B200F0A0F93449888900F0CCF9C7
:1018C000691C081200F098F9691CC8B200F094F97C
:1018D0005BE02E48807901281AD12C49488900F014
:1018E000BBF904F11A01081200F086F904F11A019B
:1018F000C8B200F081F92549888900F0ADF9691C6A
:10190000081200F079F9691CC8B200F075F93CE0E2
:101910001E48807902281AD11C49488900F09CF998
:10192000611C081200F068F9611CC8B200F064F98B
:101930001649888900F090F905F11A01081200F0A3
:101940005BF905F11A01C8B200F056F91DE00F4825
:101950008079032819D10D49488900F07DF9611C6F
:10196000081200F049F9611CC8B200F045F90749B6
:10197000888900F071F905F11A01081200F03CF9AC
:1019800005F11A01C8B200F037F930BD1C1A002069
:101990002DE9F04304460D469046994604EB0800B5
:1019A000401E86B205EB0900401E87B22D488079A3
:1019B00050B904F11A0084B206F11A0086B2681C0C
:1019C00085B2781C87B22BE02648807901280AD19D
:1019D00004F11A0084B206F11A0086B2681C85B2BE
:1019E000781C87B21CE01F48807902280AD1601C4D
:1019F00084B2701C86B205F11A0085B207F11A0094
:101A000087B20DE017488079032809D1601C84B2A1
:101A1000701C86B205F11A0085B207F11A0087B270
:101A20001049488900F018F9201200F0E5F8E0B2FA
:101A300000F0E2F8301200F0DFF8F0B200F0DCF86D
:101A40000849888900F008F9281200F0D5F8E8B2B2
:101A500000F0D2F8381200F0CFF8F8B200F0CCF86D
:101A6000BDE8F0831C1A00202DE9F84F80460E4691
:101A700017461C46B3462046E31704EB5373DB10AE
:101A800021464FEAE47C04EB5C7C4FEAEC0CA4EBCF
:101A9000CC0CBCF1000F02D04FF0010C01E04FF074
:101AA000000C6344224604EBD27C4FEA6C0C03FB2F
:101AB0000CF3DBB20093A7F12000C7B2002556E07B
:101AC0000C2C07D107EB47002B4901EB800010F8E5
:101AD000059013E0102C05D1284800EB071010F8F2
:101AE00005900BE0182C07D107EBC700244901EB48
:101AF000800010F8059001E0BDE8F88F4FF0000A73
:101B00002FE009F0800030B11E480288314640467F
:101B1000FFF7E2FB07E00A9828B91B480288314624
:101B20004046FFF7D9FB4FEA49604FEA1069701C45
:101B300086B216484088B04200DCDDE7A6EB0B0019
:101B4000A0420AD15E4608F101001FFA80F80F4852
:101B50000088404500DCCFE706E00AF1010000F014
:101B6000FF0ABAF1080FCCDB00BF681CC5B20098B1
:101B70008542A5DB00BFBFE7CE2A0008422F000840
:101B800032350008BE0C0020C00C00201C1A0020BA
:101B90002DE9F84704460D4690469946DDE9096768
:101BA00004F0FF0A08EB04001FFA80F809EB0500B7
:101BB0001FFA80F916E0444502DB5446A81985B2A5
:101BC0004D4500DB14E0002000903A78334629466A
:101BD0002046FFF749FF304606EBD07104EB610168
:101BE0008CB27F1C38787E2802DC38782028E2DA34
:101BF00000BFBDE8F88700000022134B1A600122E5
:101C0000124BC3F8BC21002117E000F080021AB18A
:101C100001220F4B1A6002E000220D4B1A604FF6B2
:101C2000FF7202EA40000022094B1B1D1A600122CC
:101C3000084BC3F8B8214A1CD1B20829E5DB0122C0
:101C4000014B1A6070470000B001214200002142A0
:101C5000B4012242000022420022124B1A60124BB1
:101C6000C3F8BC21002117E000F080021AB1012264
:101C70000E4B1A6002E000220C4B1A604FF6FF7206
:101C800002EA40000022094B1B1D1A600122084B8A
:101C9000C3F8B8214A1CD1B20829E5DB0122014B67
:101CA0001A607047B001214200002142B401224273
:101CB000000022420022134B1A600122124BC3F88B
:101CC000BC21002117E000F400421AB101220F4BA1
:101CD0001A6002E000220D4B1A604FF6FF7202EA12
:101CE00040000022094B1B1D1A600122084BC3F85B
:101CF000B8214A1CD1B21029E5DB0122014B1A6040
:101D000070470000B001214200002142B40122428C
:101D10000000224200B502490889FFF79DFF00BD7F
:101D20001C1A002030B505460C462846FFF794FFE4
:101D30002046FFF7BFFF30BD00B500201549086100
:101D4000C8601420486100208861C86108460068A6
:101D500040F001000860084640680F4908400D49FE
:101D60004860084600680D4908400A49086008466E
:101D7000006820F4802008600846406820F4FE00D7
:101D800048600020886000214FF0006000F058F8A3
:101D900000BD0000001002400000FFF8FFFFF6FE4B
:101DA0002DE9F0410746884614461D46284600F0B6
:101DB00033F8C5F1040007FA00F60F20284100EAC5
:101DC0000800064306F00F06E21704EBD262521138
:101DD000920002F1E022D2F800212146E31704EB41
:101DE000D3635B11A4EB431C012303FA0CF31A43E6
:101DF0002046E31704EBD3635B119B0003F1E02360
:101E0000C3F800210348005D40EA06100149085567
:101E1000BDE8F08100E400E00146072323EA010267
:101E20001202054B18684FF6FF031840034B184386
:101E30001043014B186070470CED00E00000FA05FC
:101E4000024A0A400243024B1A60704780FFFF1F9C
:101E500008ED00E010B508A0FEF716FD1F200949A7
:101E60000880094A3C211420FFF780F840F2DC503A
:101E700000F00EFA10BD0000CDBCC6ACCFD4CABE77
:101E800000000000BE0C0020C20C002030B589B05C
:101E90000020069007900890142101A8FEF72DFB62
:101EA00032A0FEF7F1FC4FF6FF70009032484088F8
:101EB000173883B23048028817210020FFF71CFA38
:101EC0000420FFF76FFC2C4882882CA106A8FEF79F
:101ED000BFF94FF478402B4908800120102306AA4F
:101EE0001C210090032000F08FF8002435E02648E4
:101EF00030F814002349088008460088009004EB5D
:101F0000C40000EB041000F1460304EBC40000EB36
:101F10000410323081B20F220220FFF7EDF904EBFA
:101F2000C40000EB041000F13C010420FFF77EFB2D
:101F300005462A4615A101A8FEF78AF9012000905E
:101F400004EBC40000EB0410343081B2102301AA6A
:101F5000122000F059F8601CC4B2032CC7DB40F219
:101F6000DC5000F095F909B030BD0000B6C1C6C123
:101F7000B2E2CAD4000000001C1A002049443A30E2
:101F800078257800BE0C00204C1900203D307825C3
:101F90003034780010B586B00024164B0FCBCDE955
:101FA0000423CDE9020100BF1CE02046FFF774F8CE
:101FB00011A0FEF769FC1F20124908800120009043
:101FC00002A850F8242010231E21192000F01CF82C
:101FD0004FF47A7000F05CF94FF47A7000F058F921
:101FE000601CC4B2042CE0DB0020FFF755F806B0FB
:101FF00010BD00009C420008D0FDD7AAB2E2CAD4AE
:1020000000000000BE0C00202DE9F84706460F46F0
:1020100015461C46DDF82480B1464FF0000A65E005
:10202000BAF1000F3AD104EBD471334A1288A2EB13
:102030006101B14204DB30494988091BB94201DA28
:10204000BDE8F8872878802802DD4FF0010A4DE0CE
:1020500028780D2804D1381987B24E466D1C1BE034
:10206000182C0BDBCDF800802A781823394630462F
:10207000FFF7FAFC06F10C0086B20DE0CDF8008007
:102080002A78234639463046FFF7EEFC204604EB1B
:10209000D07106EB61018EB26D1C27E016480088F6
:1020A000001BB04204DB14484088001BB84200DA31
:1020B000C6E74FF0000A202C06D143462A4639468F
:1020C0003046FEF7D5FE0EE0182C06D143462A46D0
:1020D00039463046FEF746FE05E043462A46394675
:1020E0003046FEF7C1FDAD1C301986B228780028B5
:1020F00096D100BFA4E700001C1A002030B50446AA
:102100000025FFF719FE1F48006840F480301D4984
:10211000086000BF1B480068400C0028FAD04FF44C
:10212000806018494860A01EC4B20846406840EA72
:10213000844048600846406840F480304860124857
:10214000006840F03200104908600E48006840F016
:1021500080700C49086000BF0A480068400E0028E3
:10216000FAD00848406840F002000649486005E09F
:1021700004484068C0F3870505F00305022DF7D138
:1021800030BD0000001002400020024010B50324C2
:102190000BE0FEF777FF4FF4C87000F079F8FEF718
:1021A00076FF4FF4C87000F073F82000A4F101012D
:1021B000CCB2EED110BD00001D49098801F020010C
:1021C00011B31B49091D0988C8B21A49098801F4CD
:1021D0000041C9B91749098801F4804161B10A2851
:1021E00003D00021134A118020E01249098841F4EC
:1021F0000041104A118019E00D2806D10D490988C7
:1022000041F480410B4A118010E00A490988C1F36A
:102210000D01094A505407490988491C054A118093
:1022200011460988C72901DD00211180704700008F
:1022300000380140080000205419002030380A28D6
:1022400001D20120704700207047014600BF70474F
:102250004FF0E021096921F004014FF0E022116103
:10226000C21700EB5272C2F3C702074B1A7019462D
:10227000097801EB4102C2EBC1114FF6FF7202EA8D
:10228000C101024A118070470000002002000020B6
:1022900001460D4A12884A434FF0E0235A6100225A
:1022A0009A6101221A6100BF4FF0E022106900F02C
:1022B00001021AB100F48032002AF5D000224FF05A
:1022C000E0231A619A61704702000020F8B50546C4
:1022D0000E4614461F4604B9F8BD2819401E82B2A6
:1022E0003346314628460097FFF706F800BFF3E76C
:1022F0002DE9F04F0746884616469A4640F2C3201D
:1023000070434FF47A71B0FBF1F000F1010906FB64
:1023100006F000EB560B344671040A0CB91B88B268
:1023200053464146FFF7D2FF012535E005FB05F096
:1023300004FB040058451AD94C4517D96B1E5B04A1
:102340001A0C08EB040399B27B1B5B1C98B2534632
:10235000FFF7BCFF6B1E5B041A0CA8EB040399B2D9
:102360007B1B5B1C98B25346FFF7B0FF641E6304EF
:102370001A0C08EB050399B23B1B98B25346FFF7C2
:10238000A5FF63041A0CA8EB050399B23B1B98B296
:102390005346FFF79BFF6D1C4D45C7D9BDE8F08F35
:1023A00010B50920FFF7AAFE4FF41651482000F09F
:1023B0007DF84820FFF74CFFFEF7CCFF0020FEF72A
:1023C0006BFE4FF6FF70FEF741FE01200B490860DF
:1023D0000BA000F01BF8FEF7ADF9FFF757FDFEF775
:1023E00047FBFEF7DDFAFEF75BF9FFF733FDFFF77A
:1023F000CDFEFFF7CFFD002010BD00008801214277
:1024000049433A53543737333500000038B5044652
:102410001AA0FEF739FA4FF478401B4908800120D2
:1024200010231AA21E2100900020FEF7C7FD4FF6D0
:102430001F00154908800120102316A232210090A8
:102440000020FEF7BBFD1F200F490880012010234C
:102450002246462100900020FEF7B0FD00200A49E8
:102460000880012010230EA25A2100900020FEF7C0
:10247000A5FD40F6AC50FFF70BFF38BDC6C1C4BB8D
:10248000B2E2CAD400000000BE0C0020CFD4CABE05
:10249000C6C10000B2E2CAD4B3CCD0F20000000042
:1024A00038305247422A3136300000002DE9F05FC3
:1024B00005460E46300100F0ABF981462E4905FB7A
:1024C00001F000F0A5F98246494600F0BFF8074642
:1024D000384600F07DF984B2204600F099F9834631
:1024E000394600F075FA82464FF0834100F0A4F9B6
:1024F000814600F06DF980464FF6FF7000EA041443
:1025000004EB080084B21D48806940F004001B49B8
:1025100088610846806940F48040886118480068F6
:1025200020F47F60164908600846006840F40B609C
:1025300008601248C06840F480401049C8600846EE
:10254000C06820F48040C8600E480480001D0088E8
:1025500042F20C0108430B49091D08800846008817
:1025600040F0200008800223252203210846FFF7BF
:1025700017FCBDE8F09F000040420F000010024031
:10258000040801400838014090EA010F48BF81F07B
:10259000004100F12E82421A3CBF801A89184FEA8E
:1025A000D0524FF07F4C1CEA410FA2EBD15318BF21
:1025B0009CEA026F00F03B804FF0004C4CEA002098
:1025C0004CEA012121FA03FC10EB0C0C1ED202F1A3
:1025D000FF325FEA1C2040EBC25038BF70471CF04E
:1025E0007F0F4FEA400C18BFBCF17F4F38BF7047D8
:1025F000C3F12003994008BF20F00100BCF17F4FD8
:1026000038BF7047A0F1C04000F0DDB94FEA3C0090
:10261000000A40EBC25028BF1CF0FF0F4FEA400CED
:10262000E6D018BFBCF17F4F38BF7047EAE79CEA9D
:10263000026F05D010EA5C0F08BF00F00040704741
:1026400010B500F07AF900BF64FBBE3E4FF47F0C7A
:102650001CEAD0121EBF1CEAD11392EA0C0F93EAB7
:102660000C0F00F0858090EA010F48BF42F48072A1
:1026700040F4000C41F400002CF07F4120F07F403A
:1026800000B58142A2EB03020FF2081CACEB504EE6
:10269000C0F100009EF800E04FEA4E0E00FB0EFC79
:1026A00038BF49004FEA2C1C02F5FA020CFB0EF36E
:1026B0004FEACE1E4FEA112C4FEAC1210EEB635EAA
:1026C00042EB22420EFB0CFC4FEA1C5300FB0311B1
:1026D0004FEA112C4FEA01310EFB0CFC4FEADC4CA7
:1026E00000FB0C11C14228BF09184CEB03335DF805
:1026F00004EB10EB410143EBC250B2F57C0F38BF45
:10270000704729D512F0F00F1CBF00F1C04000F057
:1027100000407047008182838485868788898B8CFE
:102720008D8E8F919293959697999A9C9D9FA0A23A
:10273000A3A5A7A8AAACAEB0B2B3B5B7B9BCBEC08A
:10274000C2C5C7C9CCCED1D4D7D9DCDFE2E6E9EC2B
:10275000F0F3F7FAFE0000004FEA400C0CF1807C29
:10276000BCF17E4F28BF7047B0F1C04000F02BB9DC
:1027700090EA010F0CEAD11348BF42F4807262451F
:1027800038BF634507D213F47F0F16D080EA0100EB
:1027900000F00040704710B500F0CFF8097EFC3E15
:1027A00000F005B880EA010000F00040704780EAC0
:1027B000010000F0004000F006B912F47F0F04BFE2
:1027C0000248704780EA010000F0FDB80000C07FB9
:1027D000C10DD1F19E0206DB4FEA002343F0004316
:1027E00023FA02F07047004207D54FEA4001B1F1E9
:1027F000FE4F02D24FF00000704710B500F09DF878
:1028000049922480002070476FEA20007047000042
:10281000B0FA80F310FA03F2C3F19D030AD0D90590
:1028200001EB1220530638BF704700F1010008BFCA
:1028300020F00100704700004FF47F0C1CEAD0121A
:102840001EBF1CEAD11392EA0C0F93EA0C0F00F0A2
:10285000478090EA010F48BF42F480724FF0004C6D
:102860004CEA00204CEA012102EB0302A0FB011319
:10287000A2F50002002918BF43F001035B0028BF46
:102880004FEA330342EB22425FEA132C4CEBC25077
:102890002EBFBCEB436FB2F57C0F70474FEA036C61
:1028A000BCF1004F08BF20F00100B2F57C0F38BF2B
:1028B00070470BD582F0FF0212F5803FC8BF70470A
:1028C00000F1C040D8BF00F00040704700F5000C98
:1028D0005FEA4C0C48BF7047B0F1C04000F073B8DD
:1028E00090EA010F0CEAD11348BF42F480726245AE
:1028F00038BF634504D280EA010000F00040704711
:1029000010B500F01AF800BF8900013E00F007B8CA
:1029100000F009B85FEA410C5FEA1C6C08D080EA5D
:10292000010000F050B85FEA400C5FEA1C6CF6D181
:102930004FF00040A0F5800070470EF1020E2EF01F
:10294000030E5EF8044B244204D44FEA4102B2F174
:102950007F4F11D84FEA4003B3F17F4F0CD80ED10F
:102960004FEAD07CB2F17F4F0CEB4C0C0CF1020C17
:1029700008BF4CEBD17C04E04FF0080C01E04FEABB
:10298000D17C0CEB4C0324FA03F404F00704B4F1FB
:10299000040C06D20EEB840CBDE810404CF0010C88
:1029A0006047DFE80CF0070802024FF00040A0F596
:1029B000800010BD0846420018BFD2F1807288BF67
:1029C00000F0004010BDFF2141EAD050C005704723
:1029D00080F0004090EA010F7FF5DDAD81F000410D
:1029E00000F007B890EA010F48BF81F000413FF5C1
:1029F000D2AD421A04D882F00042A0EB020011448A
:102A00004FEAD0524FF07F4C1CEA410FA2EBD1535A
:102A100018BF9CEA026F4AD04FF0004C4CEA0020ED
:102A20004CEA012121FA03FCB0EB0C0C0FD412F09C
:102A3000FE0F36D05FEA4C001DD5001240EBC250AD
:102A400038BF70471CF03F0F18BF70470BE0A2F172
:102A500001025FEA1C2040EBC25038BF70471CF0F7
:102A60007F0F18BF7047C3F12003994014BF401E69
:102A700020F00100704780084FEA122308BF70471A
:102A8000B0FA80FCA2EB0C02CCF1280C60FA0CF03E
:102A900093EA122F04BF00EBC25070474FEAC37095
:102AA0007047130A5FEADC1008BF7047F6E79CEA3C
:102AB000026F04D010EA5C0F08BF0020704710B509
:102AC000FFF73BFF40DFF63E81F00040704700001B
:102AD00000000000000000000000000000003F4077
:102AE0000000000000000000300040003000400006
:102AF000000009000BC03D000BC03D00090018C0DC
:102B000024407FE0224031800000180024C01B00D8
:102B10000D803240018003801C4027401C8007400C
:102B200000401000600000000000000000000000F5
:102B3000000000001F802040402000004020204076
:102B40001F8000000000090006001F800600090029
:102B50000000040004003F80040004000000001096
:102B600000600000000000000000040004000400F9
:102B7000040004000000000000400000000000000D
:102B80000000002001C006003800400000001F8047
:102B90002040204020401F800000000010403FC027
:102BA00000400000000018C021402240244018408E
:102BB000000010802040244024401B8000000200C0
:102BC0000D0011003FC0014000003C802440244023
:102BD0002440238000001F80244024403440038090
:102BE00000003000200027C03800200000001B80BB
:102BF0002440244024401B8000001C0022C02240AE
:102C000022401F800000000000000840000000007B
:102C10000000000000000460000000000000000050
:102C200004000A001100208040400900090009004A
:102C300009000900000000004040208011000A0047
:102C400004001800200023402400180000001F800A
:102C50002040274029401F400000004007C03900A5
:102C60000F0001C0004020403FC0244024401B8092
:102C700000001F8020402040204030800000204085
:102C80003FC0204020401F80000020403FC0244023
:102C90002E4030C0000020403FC024402E003000B5
:102CA00000000F00108020402240338002002040AE
:102CB0003FC0040004003FC02040204020403FC0EF
:102CC0002040204000000060202020203FC0200045
:102CD000200020403FC024400B0030C02040204056
:102CE0003FC020400040004000C03FC03C0003C047
:102CF0003C003FC0000020403FC00C4023003FC0CC
:102D000020001F802040204020401F8000002040E5
:102D10003FC024402400180000001F8021402140B3
:102D200020E01FA0000020403FC02440260019C022
:102D3000004018C024402440224031800000300070
:102D400020403FC020403000000020003F80004075
:102D500000403F80200020003E0001C007003800F6
:102D60002000380007C03C0007C0380000002040A9
:102D700039C0060039C0204000002000384007C09C
:102D8000384020000000304021C02640384020C09C
:102D90000000000000007FE0402040200000000014
:102DA00070000C0003800040000000004020402024
:102DB0007FE0000000000000200040002000000034
:102DC00000000010001000100010001000100000A3
:102DD00000004000000000000000000002800540EC
:102DE000054003C0004020003FC004400440038071
:102DF0000000000003800440044006400000000082
:102E00000380044024403FC0004000000380054090
:102E1000054003400000000004401FC0244024403F
:102E20002000000002E0055005500650042020401C
:102E30003FC00440040003C000400000044027C01D
:102E400000400000000000100010041027E0000007
:102E5000000020403FC00140070004C00440204063
:102E600020403FC000400040000007C0040007C0F1
:102E7000040003C00000044007C00440040003C075
:102E80000040000003800440044003800000041060
:102E900007F0045004400380000000000380044059
:102EA000045007F00010044007C002400400040072
:102EB0000000000006400540054004C0000000007E
:102EC00004001F8004400040000004000780004010
:102ED000044007C000400400070004C00180060051
:102EE0000400060001C0070001C006000000044005
:102EF00006C0010006C0044000000410071004E0F2
:102F00000180060004000000044005C006400440A3
:102F100000000000000004007BE0402000000000F2
:102F200000000000FFF000000000000040207BE0F7
:102F3000040000000000400080004000200020004D
:102F40004000000000000000000000000000000041
:102F500000000000000000001FCC000C000000007A
:102F60000000000008003000600008003000600031
:102F70000000022003FC1E20022003FC1E20022071
:102F8000000000000E1811043FFF10840C780000B0
:102F900000000F0010840F3800C0077818840078F4
:102FA000000000780F8410C411240E9800E40084FF
:102FB0000008080068007000000000000000000029
:102FC000000000000000000007E018182004400284
:102FD0000000000040022004181807E00000000074
:102FE00000000240024001800FF0018002400240D8
:102FF00000000080008000800FF8008000800080CA
:1030000000000001000D000E0000000000000000A4
:1030100000000000008000800080008000800080B0
:1030200000800000000C000C000000000000000008
:103030000000000000060018006001800600180073
:103040002000000007F0080810041004080807F02A
:1030500000000000080408041FFC00040004000035
:10306000000000000E0C10141024104411840E0CEB
:10307000000000000C1810041104110412880C70D8
:103080000000000000E00320042408241FFC0024AA
:10309000000000001F9810841104110410881070A3
:1030A0000000000007F0088811041104188800705F
:1030B000000000001C00100010FC13001C00100099
:1030C000000000000E3811441084108411440E38A2
:1030D000000000000700088C10441044088807F026
:1030E0000000000000000000030C030C00000000C2
:1030F00000000000000000010106000000000000C8
:1031000000000000008001400220041008081004A4
:1031100000000220022002200220022002200220C1
:103120000000000010040808041002200140008084
:10313000000000000E001200100C106C10800F0038
:10314000000003E00C1813E4142417C4082807D067
:1031500000000004003C03C41C40074000E4001CC5
:10316000000410041FFC1104110411040E880070E7
:10317000000003E00C1810041004100410081C10C8
:10318000000010041FFC100410041004080807F0CD
:10319000000010041FFC1104110417C410040818C7
:1031A000000010041FFC1104110017C010000800DB
:1031B000000003E00C181004100410441C780040B8
:1031C000000010041FFC10840080008010841FFC8D
:1031D00010040000100410041FFC10041004000070
:1031E000000000030001100110011FFE100010007C
:1031F000000010041FFC110403801464181C100448
:10320000000010041FFC1004000400040004000C63
:10321000000010041FFC1F0000FC1F001FFC100416
:10322000000010041FFC0C04030000E010181FFC39
:10323000100007F00808100410041004080807F034
:10324000000010041FFC10841080108010800F00FC
:10325000000007F0081810241024101C080A07F2B8
:10326000000010041FFC1104110011C011300E0CDD
:10327000000400000E1C11041084108410441C383B
:1032800000001800100010041FFC100410001800AB
:10329000000010001FF810040004000410041FF8C0
:1032A000100010001E0011E0001C007013801C00B4
:1032B00010001FC0103C00E01F0000E0103C1FC0C9
:1032C00000001004180C163401C001C01634180C8C
:1032D000100410001C00130400FC13041C00100058
:1032E00000000804101C1064108413041C0410183F
:1032F00000000000000000007FFE4002400240028B
:103300000000000030000C0003800060001C00037F
:10331000000000004002400240027FFE000000006A
:10332000000000000000200040004000400020009D
:103330000000000100010001000100010001000186
:1033400000010000400040002000000000000000DC
:10335000000000000098012401440144014400FCE5
:10336000000410001FFC00880104010400880070A4
:1033700000000000007000880104010401040088BE
:1033800000000000007000880104010411081FFC07
:103390000004000000F8014401440144014400C855
:1033A00000000000010401040FFC110411041100CD
:1033B0001800000000D601290129012901C90106D0
:1033C000000010041FFC008401000100010400FC47
:1033D000000400000104190419FC000400040000AA
:1033E00000000000000300010101190119FE0000A6
:1033F000000010041FFC0024004001B4010C010473
:1034000000000000100410041FFC00040004000071
:103410000000010401FC0104010001FC01040100A1
:1034200000FC010401FC008401000100010400FC17
:103430000004000000F8010401040104010400F884
:103440000000010101FF00850104010400880070F3
:10345000000000000070008801040104010501FF64
:1034600000010104010401FC008401040100018049
:103470000000000000CC0124012401240124019853
:10348000000000000100010007F801040104000031
:103490000000010001F8000400040004010801FC20
:1034A0000004010001800170000C00100160018027
:1034B000010001F0010C003001C00030010C01F0EE
:1034C000010000000104018C00740170018C0104F2
:1034D0000000010101810171000E001801600180EE
:1034E000010000000184010C013401440184010C3D
:1034F0000000000000000000000001003EFC40024F
:1035000040020000000000000000FFFF000000007B
:1035100000000000400240023EFC010000000000EC
:10352000000000006000800080004000400020009B
:10353000200000000000000000000000000000006B
:10354000000000000000000000000000000000007B
:10355000000000000000000000000000000000006B
:1035600000000000000F80380FFE380F8038000088
:10357000000000000000000000000000000000004B
:103580000100000600000C000038000031000006B9
:1035900000000C00003800003000000000000000B7
:1035A000000061800067F807F98000618000618099
:1035B0000061800061800067F807F9800061800089
:1035C000000000000000000001C0E003E0F0063051
:1035D000080418081FFFFE040E080787F00381E0A7
:1035E00000000000000001F000060C0004040806C2
:1035F0000C7001F9C0000E00003BE000EC18070859
:1036000008040C180003E00000000001E00007F0CF
:1036100003F818041C0804170807E1D003C0E000F1
:1036200023B0003C0800200800001000000000004B
:10363000000100003100003200001C00000000000A
:10364000000000000000000000000000000000007A
:10365000000000000000000000000000000000006A
:1036600000007F0001FFC00780F00C00181000046C
:103670002000020000000000002000021000040CE6
:1036800000180780F001FFC0007F0000000000006C
:1036900000000000000000000000000000004200E8
:1036A000006600006600003C0000180003FFC00038
:1036B0001800003C000066000066000042000000A8
:1036C00000000800000800000800000800000800D2
:1036D00001FFC0000800000800000800000800000A
:1036E000080000000000000100003100003200006E
:1036F0001C000000000000000000000000000000AE
:1037000000000000000000000000080000080000A9
:103710000800000800000800000800000800000879
:103720000000080000080000000000000000000089
:1037300000003800003800003800000000000000E1
:103740000000000000000000000000000000000079
:103750000000000600001C000070000180000E0048
:1037600000380000C0000700001C0000300000000E
:103770000000000000007F8001FFE0038070060071
:103780001804000804000806001803807001FFE018
:10379000007F800000000000000000000100080120
:1037A000000801000803FFF807FFF8000008000008
:1037B0000800000800000000000000000001C03800
:1037C00002C05804009804011804021804041806E2
:1037D0001C1803F81801E0F80000000000000000C9
:1037E0000001C0E003C0F004000804080804080851
:1037F00006180803F41801E7F00001E000000000DB
:103800000000000000000300000D00001100006136
:103810000000810803010807FFF80FFFF800010806
:103820000001080000000000000000E007FCD006D6
:103830000808061008061008061008061838060FB3
:10384000F00607C0000000000000000000003F80FC
:1038500001FFE00384300208180410080410080473
:103860001008071810030FF00007C0000000000048
:103870000000000003C0000700000600000600F87A
:103880000607F806180006E0000700000600000022
:10389000000000000001E1E003F7F0063410041816
:1038A00008041808040C08040C0806161803F3F0A2
:1038B00001C1E000000000000000F80003FC30033C
:1038C000063804020804020804020804041003086D
:1038D000F001FFC0007F00000000000000000000B9
:1038E0000000000000000000000070380070380088
:1038F0007038000000000000000000000000000020
:103900000000000000000000000000000000301A6D
:1039100000301C000000000000000000000000005B
:103920000000000000000000000800001400002259
:1039300000004100008080010040020020040010CF
:103940000800080000000000000021000021000025
:1039500021000021000021000021000021000021A1
:103960000000210000210000000000000000000015
:1039700008000804001002002001004000808000C0
:1039800041000022000014000008000000000000B8
:103990000003C00004C000040000080038080F380D
:1039A0000808380810000C300007E00003C00000D1
:1039B0000000000000003F8000FFE0038070020F65
:1039C0001006708804C088048308047F8802C090B1
:1039D00003012000FE400000080000180001F8006C
:1039E0003E0801C20007020007E20000FE00001FBF
:1039F000C80001F800003800000804000807FFF8BC
:103A000007FFF80408080408080408080408080662
:103A1000180803F41801E7F00001E00000000000BE
:103A200000003F8001FFE0038070020018040008DE
:103A30000400080400080400100600200780C000ED
:103A4000000004000807FFF807FFF804000804005E
:103A50000804000804001802001003807001FFE051
:103A6000007F8000000004000807FFF807FFF8044B
:103A70000808040808040808040808043E080400AC
:103A80000806001801006000000004000807FFF8A5
:103A900007FFF804080804080004080004080004EC
:103AA0003E0006000006000001800000000000004B
:103AB00000003F8001FFE00380700600180400084A
:103AC0000402080402080203F00783F00002000069
:103AD000020004000807FFF807FFF80408080008C0
:103AE0000000080000080000080004080807FFF8AC
:103AF00007FFF804000800000000000004000804AC
:103B0000000804000807FFF807FFF8040008040095
:103B1000080400080000000000000000000000068B
:103B20000000070000010400010400010400030775
:103B3000FFFE07FFFC040000040000040000040076
:103B40000807FFF807FFF8040C08001800003E0003
:103B500004C7800503C80600F804003804001800F4
:103B6000000804000807FFF807FFF8040008000039
:103B70000800000800000800000800000800001805
:103B800000006000000004000807FFF80780080735
:103B9000FC00007FC00003F80007C0007800078029
:103BA0000807FFF807FFF804000804000807FFF8FB
:103BB00007000803C00000E000003800001E0000FD
:103BC00007000001C00400F007FFF8040000000037
:103BD00000007F8001FFE0038070060018040008E9
:103BE00004000806001803003001FFE0007F800099
:103BF000000004000807FFF807FFF80404080404A5
:103C000000040400040400040400060C0003F8008F
:103C100001F000000000000000007F8001FFE003D1
:103C200080700600880400880400C806003C030079
:103C30003E01FFE6007F8400000004000807FFF853
:103C400007FFF8040808040800040C00040F00042F
:103C50000BC00610F003F03801E008000008000077
:103C60000001E0F803F030063010041808041808CA
:103C7000040C08040C080206180207F00781E00093
:103C800000000180000600000400000400000400A1
:103C90000807FFF807FFF80400080400000400000C
:103CA00006000001800004000007FFE007FFF004A9
:103CB00000180000080000080000080000080000CC
:103CC0000804001007FFE0040000040000060000E4
:103CD00007E00007FE00041FE00001F800003800C4
:103CE00001E0043E0007C0000600000400000400DC
:103CF0000007E00007FFC0041FF80007C007F80036
:103D000007FF80043FF80007C004F8000700000424
:103D1000000000000004000806001807C07805F144
:103D2000C8003E00001F800463E80780F806001802
:103D300004000800000004000006000007800007DF
:103D4000E008047C08001FF80007F800180804E0E9
:103D50000807000006000004000000000001000841
:103D60000600380400F80403E8040F08047C080582
:103D7000F00807C0080700180400600000000000F9
:103D8000000000000000000000000000003FFFFEF7
:103D90002000022000022000022000022000020079
:103DA000000000000000000008000007000000C044
:103DB000000038000006000001C000003000000EC6
:103DC00000000100000000000000000020000220B0
:103DD00000022000022000022000023FFFFE00003F
:103DE00000000000000000000000000000000000D3
:103DF000000000080000100000300000200000302B
:103E0000000010000008000000000000000000009A
:103E1000010000010000010000010000010000019C
:103E2000000001000001000001000001000001008D
:103E30000001000000000000000000200000200041
:103E40000010000010000000000000000000000052
:103E50000000000000000000000000F00019F80061
:103E60001B18002208002608002408002410003F28
:103E7000F8001FF80000080000180000000400000F
:103E800007FFF80FFFF000181800100800200800C6
:103E90002008003018001FF0000FC00000000000D4
:103EA000000007C0001FF0001830002008002008A4
:103EB000002008003C08001C10000060000000000A
:103EC00000000000000007C0001FF00038180020AC
:103ED0000800200800200804101007FFF80FFFF06A
:103EE0000000100000000000000000000007C000FB
:103EF0001FF00012300022180022080022080032B1
:103F000008001E10000E200000000000000020002D
:103F100000200800200801FFF803FFF8062008042D
:103F20002008042008072000030000000000000013
:103F30000000000E000E6E001FF30031B10020B132
:103F40000020B1003191001F13002E1E00200E0032
:103F5000300000000004000807FFF80FFFF8001011
:103F600008002000002000002008003FF8001FF893
:103F70000000080000000000000000000020080011
:103F80002008002008063FF8063FF800000800005F
:103F90000800000800000000000000000000000011
:103FA00000000300000300200100200100200306A0
:103FB0003FFE063FFC000000000000000000000083
:103FC0000004000807FFF80FFFF800018800030055
:103FD000002FC00038F8002038002008000008003A
:103FE00000000000000000000400080400080400B5
:103FF0000807FFF80FFFF80000080000080000089D
:10400000000000000000002008003FF8003FF8001A
:104010001008002000003FF8003FF80010080020C2
:1040200000003FF8003FF8000008000000002008F2
:10403000003FF8003FF800100800100000200000CA
:104040002008003FF8001FF80000080000000000F2
:10405000000007C0000FF0001830003008002008F2
:10406000002008003008001830000FF00007C000E2
:104070000000000000002001003FFF003FFF001093
:1040800011002009002008002008003038001FF02F
:10409000000FC00000000000000007C0001FF0007B
:1040A0003818002008002008002009001011001F07
:1040B000FF003FFF00000100000000200800200872
:1040C000002008003FF8003FF80008080010080032
:1040D0002008002000003000003000000000000038
:1040E00000000000000C78001E18003308002308B0
:1040F0000021080021880021980030F0003860007D
:10410000000000000000200000200000200000FF50
:10411000F003FFF80020080020080020080000300D
:10412000000000000000000000002000003FF00040
:104130007FF8000018000008000008002010003F71
:10414000F8007FF0000010000000000000002000D8
:10415000003000003C00003F800023F000007800A9
:104160000070002380003C00003000002000002090
:1041700000003C00003FE00023F80000E0002700C2
:10418000003E00003FE00021F80001E0003E00009A
:104190002000000000002008002008003838003E01
:1041A000680027800003C8002CF800383800201869
:1041B0000020080000000000000020000030030084
:1041C0003C01003F830023EC000070002380003C92
:1041D000000020000020000000000000000000009F
:1041E0000038080020380020F80023E8002F88005D
:1041F0003E08003808002018000070000000000091
:1042000000000000000000000000000000000800A6
:104210000014001FF7FC3000062000020000000020
:10422000000000000000000000000000000000008E
:1042300000000000FFFFFF00000000000000000081
:10424000000000000000000000000000200002301C
:1042500000061FF7FC00140000080000000000002A
:104260000000000000000000000000000018000036
:104270006000004000004000002000001000000826
:1042800000000400000400000C000010000000000A
:1042900000F8E0071F0040BCE0FF000020430008DA
:1042A0001043000808430008184300081F000000DE
:1042B000E007000000F80000FF0700001FF8000002
:1042C000E0FF000000000000FFFF0000303132334B
:1042D000343536373839414243444546403058003A
:1042E000303132333435363738396162636465666C
:1042F00040307800040000080000000000000002C8
:104300000001000010000000523A32373000000077
:10431000523A313830000000523A39300000000083
:10432000523A3000444300080000002054190000B5
:104330006C0100087C530008541900203C07000061
:10434000C8010008A123D7E81E7DF8450849022BC3
:1043500051F8061C45084510100A69085108410823
:1043600047FE4023B7F1137FFC138001120320099D
:10437000056009183104C1023C1FF010012908131F
:10438000D4F2B809047F04410441244902101614F0
:10439000241204210440948088B5C820403F7E4800
:1043A00090850801143FF801120133FFFE100A2026
:1043B0007FFC0820042004A0180D40B4FD0840082C
:1043C00040104023FC4808180E17FE30105010977C
:1043D000FE101012101102190D1420D6D812103B25
:1043E000F83F3C1A01801A117C29044952295014C3
:1043F000D0C2101508047F78180D4022401440FFE9
:104400007E084808487F04180E2A484948888828AA
:10441000881108C8E7104519023D7CFE44220218A5
:1044200008424424441444080416227C4244802355
:10443000C9EE180C27FC140414A481104208409201
:10444000100F17FC2040E0E0215022482C4620406D
:10445000480840DBDA11041124025AFD0829021829
:104460000E1D24E124422402040404CAD002A62121
:104470002B7FFCEA29A05B2108022C2821101213B3
:10448000BAE8101E108020407C1F448464445444C9
:1044900044044C2440447EC40247025C7A480240F3
:1044A0000A1C04D1B68819E01C111001022DF1106C
:1044B00017D00C1902C80C12150A190A11060102AC
:1044C000B5E75E9908160A010201021CFED7D384E3
:1044D0001AF8EF122015400180014BFFFE3249020D
:1044E000120512021AD3AA1A021812041204280D75
:1044F0000FF0081018102FF0481088100C19022621
:10450000500820CFDE180A7BF84A08520853F86298
:104510000610124BF84A444A486A30522042104270
:104520008843064213B9AB1B800402180D084008EB
:1045300040102020104208820650200A4008201017
:10454000203FF0101023CBBE133FF812082C087F39
:10455000E8061B1F88633902290A1112281C10CD96
:10456000BCAA1820FC4204420447E44C4452844153
:104570000446C4783C43044084460441847FFC40A4
:1045800004D0CE22680E84120412081210122212D5
:1045900002FFC40A28132204220842108260D3A218
:1045A00008200820FFFE0820DE2D1FF01110022D2C
:1045B000FFFE02808C38083018C006CEC402FA1CF8
:1045C000FFFE1001292E160440028001892213CA21
:1045D000D4100A2820241024102007FE280820F0D8
:1045E0002017E01120461009151019CA170A0206F3
:1045F0002C02D6D04229026D3FF8210802290C690D
:104600001813B2E2180B0427C414441454855445FB
:10461000021A150210112554E55421042284224463
:1046200024140808D2BA282480204017FE112081C3
:1046300020423C4244166412942348E2482230222D
:1046400020225022880306BEA70FE0A06906218F12
:104650007EFC428442840623CFD42B1FF0C8690617
:10466000200F044044442444144814500440FFFEE6
:1046700023CABE833FF82BFFFE9C19CC10090821EA
:1046800004410281020512022BC6C122196119C020
:104690001F241022202FF880180B203FFC222042DC
:1046A00020442084191808D0FD20801080103C126E
:1046B000FE180921FC20243C2424A0022ABC061652
:1046C0004560553E8A3CD7AA20012817FDFC4020B2
:1046D000504093FEFC40108011FC1C04F0885050A8
:1046E00010209A14B3CC081E1DFCF104110214FD15
:1046F000FC101230180939FE5420542091FC20156A
:104700002013FE1024D0F20115803FFE201B23F859
:10471000133EA020402FFE832A40011381401480C5
:10472000C6AC5B4010021A1F4429022B1FE0403A1E
:10473000107E2D4020D0E8CC120110087FFE4102EF
:104740009D74012B1D70F41A02141B24880226A8E4
:104750002010D2AA1F7FFC04400440142F48244894
:104760003FF80210180E2008401C800380067038A5
:1047700008D0A36019521411FEFC280E10883104D1
:104780003A0254885088905010CA181D501088134F
:1047900006D7BC01404120212023FE022016201B09
:1047A000FC1220222023FCE206190813FE2212022A
:1047B0002BB4A590180A782049FC91247D24550239
:1047C00010107DFC552454207C28542457FE4502AB
:1047D0008C100CC3FE1110111017FC1110FC0019E5
:1047E0001613F8120817F81A0833F8D04017FC10FF
:1047F000A0111052082406A3AC1A30021210322065
:1048000013C7EB100A40404027FC204003F8154036
:10481000E7FE202D23F8220804180C2BF83208227A
:10482000280210B5E3028E12022B03FC061B3FF098
:10483000D71902233FF0100C2488224442448004FC
:10484000BBF70129024B3FF8082BFFFE064B21085E
:1048500002133FF82408C4BB1E3FF82008200E189E
:1048600008241022202FF80426100C11103FF8D134
:1048700016115011200113B6C119EE1511FC1020AC
:10488000101B2003FEF00210941050111010901312
:10489000FE1428184410820302BACD04120E1278B6
:1048A000180E087C0844FF44084418441C442A029B
:1048B0001C484488121208120814D1D5101C08FE96
:1048C0007F60280B147C7F4444544854525406287B
:1048D0000D51544228442488423082C9AB286809CB
:1048E0001FE020204040BFF8A019732A0202231FB6
:1048F000FE3818D6B5084008400FFC104010403371
:10490000F8320853F8920813F812041612081FFE22
:104910001043D6D022103A18063903DF1FFFF818CB
:1049200010180349157C1010102759364939217386
:10493000CEC46A201A180908083FFFFC0101800351
:10494000112281190322832242224622246A2C3E0C
:10495000226617C3800301F00C1B7C30D02163B2A8
:10496000E2121018090809FE080D86080103380A2A
:10497000B66841B64833B64813036A05032B09A647
:1049800003281439A44819600818580818C40818CE
:1049900086081B0238045A1173CAD412011510017B
:1049A000F00813980C138804258404FFFE1A800372
:1049B00018097E028004FF800408032DC00408400B
:1049C0000310104860048922050E320670120E4052
:1049D0001C04220E32025ACF4A1503FFC002136094
:1049E000021A4003390C2909590C1380401A62E15C
:1049F0001810181042100C42200642400642800255
:104A0000431295083FFFFC83CABEE5200FFFF01B51
:104A1000047F2919B91218130119201803188003EB
:104A200018400618200C183008181810180C2018F8
:104A30000841F81A703B4183B2E2220814100C209E
:104A4000380918063FF018033030041114303318B9
:104A500014323398180D33B3183033331818B33376
:104A6000181C041A0C041A09102A01044A32045AA8
:104A700002041A0604180B7E3623181C2603180C91
:104A80000504180D0C80180C0840180C1870180C30
:104A900054150C6031F05D80107001829BCAD4BC4B
:104AA000311407C00C14067006140630031B0610E0
:104AB000041A180412081A3FD611320649041A01C2
:104AC00004147F801614031FFA1C030182049A83C6
:104AD000042A81041C80030904100E118CC40321D4
:104AE000F0C40343C06403DE14740388143C0380E1
:104AF0001A1C7E5A0C711183C0FD1916111301C0C6
:104B000014180180100C1001801010037FF810039E
:104B100006182010020602100606031006040310F1
:104B20000F0C23100A0FFB101A0823101218631021
:104B30002210041908180B422C43100226C310023D
:104B400046042E0583100201041E031002030240D6
:104B500019441A04041A08041A1004162003F00257
:104B600040237002422093B3CC32101279180A10FD
:104B700003E1FFF83D818030C7C9045808898030BF
:104B80007FFDFFF0101119CC10091803E3FFFC039F
:104B9000B8041B0798041388041A0504140D800434
:104BA000180A098004101181FFF8110C1A21041A47
:104BB00041044A01041E08018FFFFCE639F241C39B
:104BC000CFD42A011814FFFF801A8024A9040919E0
:104BD00014394A2B0C3004101520080C3070060CC8
:104BE0003060070C30C0038C3180018C3324018C81
:104BF000321B8C34202A3824C6303FFFFFF8F3CA1A
:104C0000BE199E11061BC003FFFFE01A18461AFCCE
:104C1000D119B3590423618823F18413C183181F68
:104C200001C18180018180C0030180E006018070A4
:104C30000C018038080180181001801020612C1AA6
:104C40001F0432076202F3C6C11A207E23F0037AE2
:104C500030041910192D1530020402140206071C25
:104C6000020306041204100C02010860027FFFF028
:104C7000060206D9041B3005E81A040C1A0C044B72
:104C80000806041B100C041308061B2030041B60CC
:104C900006B9520493D0F2420132C0126012041CD1
:104CA00060300746320619041E40063FFFC0341329
:104CB000E00612031C060104141AD8041A60041A30
:104CC00070044B30102C143038041B3020044B403F
:104CD0000C04119A08043A100412201C2007E00664
:104CE00012E01A4002610D20FFFFBEF702080A2100
:104CF000DFF77DF7AFDBFFF7FF2C09240215FFF785
:104D000039EE0F39D0B3E4FFFFDE46AADF5214FFBD
:104D1000ABE2AED888D9FFFF16092C4E8B1CEF3CB6
:104D200015FFF79AEE12E01BE005520935E48CFFFF
:104D300063C83C1ADF52111BD802520B324EE352A9
:104D40001ADF02117DD0D8EDFF103A7D5019521BA9
:104D5000D8DE0E092F9E14F772E47BD88F8C15FFD6
:104D6000F7F4EC194E29A26B92E466092AEE1302BD
:104D7000D86CE0ECDA3A3EFFFF84D801500D2E01EA
:104D8000D8ACE2F215FFFF32E45DE001E06EA01C5A
:104D9000FFF7D310294E19503BE02A500928F41A86
:104DA000DF40111AD0DA3BD893DA15FFF79EF74AA5
:104DB000D84E295029A00D267DF7DBEEA62DFFF752
:104DC000ACE2DC114CD859EE505A63EC2902111BAD
:104DD000E0F0B60F22FFFFE5D052E4527ADF8E11E9
:104DE0002BD8FFAC5CFFE9D9EC49161DE0F7E5FFD5
:104DF0006413F4E40C20D88BDA524DFFFFD0E3406B
:104E00001B01D0871BF7D438290E3D42D842E2500F
:104E100019161ADE501399EE12D80B1FE0CC524D22
:104E2000FFFF67D9DE2B43D850114AD09C1C61F597
:104E300001502E01E026D9FF262CF718EE76112C12
:104E4000E096ED10091A504B43D850298A4B97ED44
:104E5000AC180862E260FEE1EA021A2B8EE3924D82
:104E6000FFFF2EE32629C6091C502A02E01BD902A7
:104E7000CE4CF8ED76502808D8C1FDC0FDE1F41401
:104E80001C92E4FF24133CF7292639A20A17F7A243
:104E900039CA2BFF232A1CE142EB7C3BD8FBD613FB
:104EA000C2E1180EFE80FD20FE22D801D88BE2FF61
:104EB000FFEC594E29500B14D0E3501EFFFFCCD20B
:104EC000FF011B06D9CA1DD8C0FEA2341C23D8631B
:104ED0000C180B81EBC0FD80FDE0FDE2E2404CD8F8
:104EE000A7D94E3AE2060D1201E00DE3F215DFF705
:104EF0009EF72AD0502BCCE250113CFEC0F5FA1997
:104F00000C2B01EC501AA0022912191E19141C4274
:104F1000D902C20918A015FFF7B3E41808E014ED90
:104F2000FFFF76ED801809D861F5C0FD81F5620AB2
:104F3000280902D841EBE0FD80F5F24B62E1623EC8
:104F4000E2D880FE820C110C13D818EE5014FF4EDC
:104F5000E31DE022D8FF0A2F01D002E081EC902867
:104F60001320FEA1EB02D9A2D0E0FDAEF649F6A0D7
:104F7000FD01EC4E4808A2E220FE40FEA2BE19D47C
:104F800009104E29501C2DE301CC1E25D9FFF7B680
:104F9000A21361EA1BFE80E613C0FD180BFEE0FDC4
:104FA00060F54AF6DDF760A61DA1E281F5AE2CFDA5
:104FB00021FEFC111CD896E5820B11F7DFF01A7266
:104FC000F01A0252111809D851E4C9D901D8E1A048
:104FD000181080FD4AF6C3F560FD60FD8DF6FFFFF9
:104FE000400A2BE0F51619AA14F502D81DE08BDA59
:104FF000FF01ED15ED18EE5215DFF73CF749C22A17
:10500000D8A81908100CE140FEA0FD40F535F7576F
:10501000F716F558F79AFF2EF5AFF628F6B61808EA
:1050200020FE42E201E06A4E15F8EDC4D80913F4FF
:105030001DFFFF88D9481ED842EC42E2CC19021B62
:1050400082D8E219521C36F7DC1E1C57F7798C15F2
:1050500040F580FD2CFE61F4201CC9E101A411FD86
:10506000D8DBEEFF4E29A23A7DA2280F62D8A0FE1F
:1050700020FEE0F4E1EB81EBA0F4DE2B40F5D62935
:10508000011A089E1FC0FD42E302D0781CD862E1DD
:10509000F40C12D8F4EC9E39A22CF776ED521AC219
:1050A000EA1AC038580AE2F5A0F560FD40FDC55087
:1050B0001C36F7209E100D80F5C0FDE0FD40FEA0DF
:1050C000FEA1E10C12D835ED9C59A219341B59F6FA
:1050D000F41CE082E1A21FFDA0F5D0F6DDEA690133
:1050E000380835F74AF6A2F5A04E180801EC01E0A1
:1050F00065E03C1E09164A2825FFFFFAEE4FBC4426
:1051000092619142D002E802E041EBE0FD20F6A07E
:10511000F502F6AAF6CEFEEEFEABFE44F64A1E41BE
:10512000F501EB42744F81A84EB499DE6A99E439D7
:105130000118163CEF6FBCC389E08040898191A2C1
:1051400091C289429982C0023415C2E041EA1DEB46
:1051500080F380041F20EB61EA81E96A100CD80219
:10516000C802A9A289A28961897F894089EDB39883
:1051700056380CFFFF17DE4FBCA391A080204A8950
:1051800002180BC289C289219903B162C03E180F6F
:10519000C802D002C822C001B8A1A84299A21A89A7
:1051A00028101382914089E0884189CCBBD7D5FF74
:1051B000FF08BB60E49809ED01F563CBA399812654
:1051C000290211280889C79AD4CD408140290217A5
:1051D0006081F0BC49A3BB81A126781E8291E4A125
:1051E000E3D341F5E0ECA0ECCAC341F522C323C3ED
:1051F00042C3A1E4E2EC04A282261A61FCAF32CDE4
:10520000FFFF20811417E8A2FFFFB5D59B81407AEC
:10521000281F44AA41F541D463C3A3CB02BBC4F504
:10522000D2F6C0D301ED02D421ED61DC22EDE3A181
:105230003E294C2809A79A9DF7FFFF29A33A3A82F5
:105240000239B23B81FF011E4AABC080611A1812BD
:10525000819124AA61F502D441F5A2C321EDA0D326
:10526000141C136DC41809DCE0EC41DC62C360ACB3
:105270002809E080C08008A399E6362BDAE6361AC2
:1052800062481810C299A39983916289E08858DE18
:10529000FFFFDF6A181A3CEF8BABE080209163CBF5
:1052A00061F5C3CB81E440F5A0D36EC4FFFFBE1C03
:1052B000180F59E689BB42C3E0D385DCECBB53CD64
:1052C000311901291828172DB46191A3CB22ED21A2
:1052D000F5E1EC21ED81FD22DCA2994EBC1C3CBE27
:1052E000F7DF26480F37DE06B3E0C260CB80BA8511
:1052F000AAF7DD1A691C69013ADF14295068170EF4
:10530000C460E482E4A2CBC1ECE1ECE3D3A5994113
:10531000F582CB8ABB3649243808FFFF7EF7DBE6EF
:105320007D0A8918091202180EDFFF9ADE40F5C2C5
:10533000A1A0FDE0ECA1D0E80920F580E4A0A9112E
:10534000D5383ADF02091C4C697E08131EDCFF4E7B
:10535000DD09B3A5B284B2A5AA29BB6FC4DAEE8673
:10536000091C023ABFC889010A1FDF4E1115F8E077
:0C537000071F4DE0FF1FF80A210000009D
:0400000508000131BD
:00000001FF
